:03000000020006F5
:06005F00750CFF02000316
:0300030002017087
:10006500AE82AF83EE4F6016C28D758CA2758A4045
:10007500D28C308DFDC28C1EBEFF011F80E622AFE3
:10008500827E00EF30E716900004C007C00612001C
:1000950065900001120065D006D00780149000011C
:1000A500C007C006120065900004120065D006D096
:1000B500078F05ED2DFF0EBE080040C72275E10034
:1000C50075E2069000641200657590FFC2AF0238B4
:1000D5000080FEAF82E50E24F8400BE50F600A7440
:1000E50001B50F0280038F82227401B50F14850EAE
:1000F500F005F07401800225E0D5F0FBFEEF420625
:100105008011850EF005F07401800225E0D5F0FB25
:10011500F45FFE8E8222AF82E50E24F850038F82B3
:1001250022850EF005F07D017E008006ED2DFDEEA9
:1001350033FED5F0F78F037C00EB5205EC5206ED4C
:100145004E6015850EF005F07401800225E0D5F0AE
:10015500FBF4FEEF52068010850EF005F074018069
:100165000225E0D5F0FB4FFE8E82227F008F0D7CAD
:10017500007D0075A15575A1AA75B98643B10175B4
:10018500A1005396FE4397015392DF439320539268
:10019500BF43934053927F4393807590FF750C1F27
:1001A50053B0FE43C98043C91075890175E22943DF
:1001B500D101750B0030D8107A017B008AEC8BEDEC
:1001C50075DC02C2D875E30030DD17850C9074012B
:1001D500B50D0FC007C005C0041200C2D004D0057C
:1001E500D00720DC1EBC6016BDEA13E5B030E00484
:1001F500C2B08002D2B07C007D008DFF80050CBCB2
:1002050000010D30D9AFE5D9540F60030204B17573
:10021500DD00ABD9530330BB00030205A1BB2003AE
:10022500020492BB300280030205A1D2B0C2B09095
:100235000001E020E703020444900002E0FBBB0656
:100245000280030205A1900004E0FBBB0102801AB5
:10025500BB02028065BB0303020346BB0603020320
:10026500B2BB22030204020205A17F00900007E051
:10027500FBBB120050030205A1900648E493F9A3C5
:10028500E493FAA3E493FB890E8A0F8B1090064B37
:10029500E493FB8B1175120090000175F000C00707
:1002A500C005C0041205A6D004D005D00790064BA2
:1002B500E493F5DD75DCC00205A17F00900007E041
:1002C500FBBB12004041900694E493F8A3E493F934
:1002D500A3E493FA880E890F8A10900697E493FA9F
:1002E5008A1175120090000175F000C007C005C0A5
:1002F500041205A6D004D005D007900697E493F51F
:10030500DD75DCC00205A1900694E493F8A3E4939F
:10031500F9A3E493FA880E890F8A108B11751200E0
:1003250090000175F000C007C005C004C0031205A8
:10033500A6D003D004D005D0078BDD75DCC002053F
:10034500A17F00900003E075F004A4FBAAF024E46B
:10035500F582EA3406F583E493F8A3E493F9A3E47C
:1003650093FE880E890F8E10EB24E4FBEA3406FA1F
:1003750074032BFBE43AFA8B828A83E493FE8E1195
:100385008F1290000175F000C007C005C004C003BE
:10039500C0021205A6D002D003D004D005D0078B29
:1003A500828A83E493F5DD75DCC00205A17F0090A8
:1003B5000007E0FEBE0A0280030205A19006A2E442
:1003C50093FAA3E493FBA3E493FE8A0E8B0F8E109E
:1003D5009006A5E493FE8E1175120090000175F04C
:1003E50000C007C005C0041205A6D004D005D0077B
:1003F5009006A5E493F5DD75DCC00205A17F0090AC
:10040500066EE493FAA3E493FBA3E493FE8A0E8BB2
:100415000F8E10900671E493FE8E118F12900001DD
:1004250075F000C007C005C0041205A6D004D005AC
:10043500D007900671E493F5DD75DCC00205A19047
:100445000002E0FEBE05028008BE09028012020518
:10045500A1900003E0F50B75DD0075DCC00205A178
:1004650075D21243EA8053EABF7B417E008BEE8E44
:10047500EF75D41A43EB0453EBF77B817E008BE4D5
:100485008EE57F0175DD0075DC400205A1EF700882
:100495007F0175DCC20205A1E50B600AE50BB5E33A
:1004A500028003850BE375DC420205A1AED9530634
:1004B5000FBE01028003020591900041E0FE703CF1
:1004C500750E05750F01850C82C007C005C00412A5
:1004D50000D885820C750E06750F01850C821200F9
:1004E500D885820C750E07750F01850C821200D810
:1004F50085820CD004D005D0070205A1BE011B756D
:100505000E07850C82C007C005C00412011B858239
:100515000CD004D005D0070205A1BE021A750E063F
:10052500850C82C007C005C00412011B85820CD052
:1005350004D005D0078065BE031A750E05850C82AB
:10054500C007C005C00412011B85820CD004D0056C
:10055500D0078048BEFD05750D018040BEFE0B75B8
:10056500A15575A1AA75B1108032BEFF2F900081EB
:100575007401F090008274FFF0900083F090008485
:10058500F075D540E5D454FCF5D48010AED95306AA
:100595000FBE0208E5D4440254FEF5D4C2D90201C7
:0105A500BA9B
:1006360012010002000000403B41072100010102B7
:100646000301360680120600FF0901A10109011502
:100656000026FF007508950181020901150026FF95
:1006660000750895019102C04C06802209022200FD
:100676000101008032090400000103000000092185
:10068600110100012222000705010340000A72063B
:1006960080220A0600020000004000009806800A38
:1006A60004030904100341004E0042005400650093
:1006B600630068001A0355005300420020005200F0
:1006C60065006C0061007900480049004400100391
:1006D600310037004E006F00760032003400A60667
:0E06E6008004AA068010BA06801AD40680107E
:06003500E478FFF6D8FD9F
:1005A600AD82AE83AFF08D138E148F15850E168532
:1005B6000F17851018A811A9128803890418B8FF07
:1005C6000119EB4C60258516828517838518F01274
:1005D6000616FCA38582168583178D828E838FF07F
:1005E600EC1205FBA3AD82AE8380CE851382851403
:0505F600838515F022D1
:100013007900E94400601B7A009006F478C175A06A
:1000230000E493F2A308B8000205A0D9F4DAF2754C
:02003300A0FF2C
:1005FB0020F71130F6138883A88220F509F6A8831B
:0B060B007583002280FEF280F5F022D3
:10003B007800E84400600A790175A000E4F309D860
:10004B00FC78C0E84400600C7901900001E4F0A357
:04005B00D8FCD9FAFA
:0D000600758118120632E5826003020003C6
:1006160020F71430F6148883A88220F507E6A8830D
:1006260075830022E280F7E49322E022758200229D
:00000001FF
