:03000000020006F5
:03005F0002000399
:03000300020105F2
:10006200AE82AF83EE4F6016C28D758CA2758A4048
:10007200D28C308DFDC28C1EBEFF011F80E622AFE6
:10008200827E00EF30E716900004C007C00612001F
:1000920062900001120062D006D007801490000125
:1000A200C007C006120062900004120062D006D09F
:1000B200078F05ED2DFF0EBE080040C722AF82E577
:1000C2000C24F8400BE50D600A7401B50D028003A3
:1000D2008F82227401B50D15AE0C8EF005F07401FD
:1000E200800225E0D5F0FBFEEF42068013AD0C8DB9
:1000F200F005F07401800225E0D5F0FBF4FD5FFE0F
:100102008E82227F0075A15575A1AA75B9868FA12D
:100112005396FE4397015392DF4393205392BF437A
:10012200934053927F439380C295C296C297AE90FA
:1001320053B0FE43C98043C91075890175E2294352
:10014200D101750B0030D80D7C017D008CEC8DED5A
:1001520075DC02C2D830DD028E9030D9E8E5D95480
:100162000F60030203F575DD00ACD95304307D0046
:10017200BC0006BD00030204ACBC2006BD000302A5
:1001820003D6BC3005BD000280030204AC9000011E
:10019200E0FD20E703020388900002E0FDBD0602B5
:1001A20080030204AC900004E0FDBD0102801ABD90
:1001B20002028061BD0303020296BD06030202FE33
:1001C200BD220302034A0204AC7F00900007E0FD57
:1001D200BD120050030204AC900553E493FBA3E468
:1001E20093FCA3E493FD8B0C8C0D8D0E900556E4CD
:1001F20093FD8D0F75100090000175F000C007C0CF
:10020200061204B1D006D007900556E493F5DD75C9
:10021200DCC00204AC7F00900007E0FDBD1200408C
:100222003D90059FE493FAA3E493FBA3E493FC8A35
:100232000C8B0D8C0E9005A2E493FC8C0F751000B4
:1002420090000175F000C007C0061204B1D006D0BC
:10025200079005A2E493F5DD75DCC00204AC9005BD
:100262009FE493FAA3E493FBA3E493FC8A0C8B0D23
:100272008C0E8D0F75100090000175F000C007C044
:1002820006C0051204B1D005D006D0078DDD75DC9D
:10029200C00204AC7F00900003E075F004A4FDAC42
:1002A200F024EFF582EC3405F583E493F9A3E493AB
:1002B200FAA3E493FB890C8A0D8B0EED24EFFDEC7F
:1002C2003405FC74032DFDE43CFC8D828C83E493A5
:1002D200FB8B0F8F1090000175F000C007C006C0A5
:1002E20005C0041204B1D004D005D006D0078D8217
:1002F2008C83E493F5DD75DCC00204AC7F009000D2
:1003020007E0FDBD0A0280030204AC9005ADE49350
:10031200FBA3E493FCA3E493FD8B0C8C0D8D0E9058
:1003220005B0E493FD8D0F75100090000175F0008B
:10033200C007C0061204B1D006D0079005B0E493FE
:10034200F5DD75DCC00204AC7F00900579E493FB17
:10035200A3E493FCA3E493FD8B0C8C0D8D0E90050E
:100362007CE493FD8D0F8F1090000175F000C007A3
:10037200C0061204B1D006D00790057CE493F5DDE7
:1003820075DCC00204AC900002E0FDBD05028008ED
:10039200BD090280120204AC900003E0F50B75DD8A
:1003A2000075DCC00204AC75D21243EA8053EABF86
:1003B2007C417D008CEE8DEF75D41A43EB0453EB38
:1003C200F77C817D008CE48DE57F0175DD0075DCB5
:1003D200400204ACEF70087F0175DCC20204ACE598
:1003E2000B600AE50BB5E3028003850BE375DC4283
:1003F2000204ACACD953040F7D00BC0105BD000260
:100402008003020497900041E0FD7025750C05758C
:100412000D018E82C0071200BF750C06750D011208
:1004220000BF750C07750D011200BFAE82D00780A8
:1004320079BD0113750C07750D018E82C00712007C
:10044200BFAE82D0078063BD0213750C06750D0125
:100452008E82C0071200BFAE82D007804DBD03134B
:10046200750C05750D018E82C0071200BFAE82D0D9
:10047200078037BDFF349000817401F090008274D0
:10048200FFF0900083F0900084F075D540E5D454DD
:10049200FCF5D48015ACD953040F7D00BC020BBD12
:0F04A2000008E5D4440254FEF5D4C2D902014744
:1005410012010002000000403B41072100010102AD
:100551000301410580120600FF0901A101090115EE
:100561000026FF007508950181020901150026FF8B
:1005710000750895019102C05705802209022200E9
:10058100010100803209040000010300000009217B
:10059100110100012222000705010340000A7D0527
:1005A10080220A060002000000400000A305800A24
:1005B10004030904100341004E0042005400650089
:1005C100630068001A0355005300420020005200E6
:1005D10065006C0061007900480049004400100387
:1005E100310037004E006F00760032003400B10553
:0E05F1008004B5058010C505801ADF05801056
:06003500E478FFF6D8FD9F
:1004B100AD82AE83AFF08D118E128F13850C148532
:1004C1000D15850E16A80FA9108803890418B8FF09
:1004D1000119EB4C60258514828515838516F01270
:1004E1000521FCA38582148583158D828E838FF06F
:1004F100EC120506A3AD82AE8380CE8511828512F2
:05050100838513F022C8
:100013007900E94400601B7A009005FF78C175A060
:1000230000E493F2A308B8000205A0D9F4DAF2754C
:02003300A0FF2C
:1005060020F71130F6138883A88220F509F6A88310
:0B0516007583002280FEF280F5F022C9
:10003B007800E84400600A790175A000E4F309D860
:10004B00FC78C0E84400600C7901900001E4F0A357
:04005B00D8FCD9FAFA
:0D00060075811612053DE5826003020003BE
:1005210020F71430F6148883A88220F507E6A88303
:1005310075830022E280F7E49322E0227582002293
:00000001FF
