:03000000020006F5
:03005F0002000399
:0300030002011ADD
:10006200AE82AF83EE4F6016C28D758CA2758A4048
:10007200D28C308DFDC28C1EBEFF011F80E622AFE6
:10008200827E00EF30E716900004C007C00612001F
:1000920062900001120062D006D007801490000125
:1000A200C007C006120062900004120062D006D09F
:1000B200078F05ED2DFF0EBE080040C72275E10037
:1000C20075E206900064120062C2AF02380080FE40
:1000D200AF82E50E24F8400BE50F600A7401B50FFC
:1000E2000280038F82227401B50F17AE0E8EF005C7
:1000F200F07401800225E0D5F0FBFE8F05ED42068B
:100102008013AD0E8DF005F07401800225E0D5F06C
:10011200FBF4FD5FFE8E8222750C00750D007C00E3
:100122007D0075A15575A1AA75B9868DA15396FE5C
:100132004397015392DF4393205392BF439340531B
:10014200927F439380C295C296C297AB9053B0FE02
:1001520043C98043C91075890175E22943D10175EC
:100162000B00BC6014BDEA11E5B030E004C2B080FF
:1001720002D2B07C007D0080050CBC00010D30D89D
:100182000D79017A0089EC8AED75DC02C2D830DD86
:10019200168B907401B50D0FC005C004C003120088
:1001A200BFD003D004D00530D9B8E5D9540F6003CD
:1001B20002046475DD00A9D95301307A00B9000642
:1001C200BA0003020534B92006BA0003020443B997
:1001D2003005BA00028003020534900001E0FA20E3
:1001E200E7030203F4900002E0FABA060280030277
:1001F2000534900004E0FABA0102801ABA020280C1
:1002020066BA03030202F1BA060302035FBA2203CB
:100212000203B0020534750C00900007E0FABA122E
:100222000050030205349005DBE493F8A3E493F94C
:10023200A3E493FA880E890F8A109005DEE493FAFC
:100242008A1175120090000175F000C005C004C04B
:1002520003120539D003D004D0059005DEE493F5EE
:10026200DD75DCC0020534750C00900007E0FABAB7
:1002720012004041900627E493F8A3E493F9A3E423
:1002820093FE880E890F8E1090062AE493FE8E113B
:1002920075120090000175F000C005C004C0031281
:1002A2000539D003D004D00590062AE493F5DD7514
:1002B200DCC0020534900627E493F8A3E493F9A383
:1002C200E493FE880E890F8E108A11751200900039
:1002D2000175F000C005C004C003C002120539D088
:1002E20002D003D004D0058ADD75DCC00205347566
:1002F2000C00900003E075F004A4FEAAF02477F548
:1003020082EA3406F583E493F8A3E493F9A3E49331
:10031200FF880E890F8F10EE2477FEEA3406FA74F6
:10032200032EFEE43AFA8E828A83E493FF8F1175DC
:10033200120090000175F000C006C005C004C003A1
:10034200C002120539D002D003D004D005D0068EE7
:10035200828A83E493F5DD75DCC0020534750C00F6
:10036200900007E0FFBF0A028003020534900635C1
:10037200E493FAA3E493FEA3E493FF8A0E8E0F8F15
:1003820010900638E493FF8F1175120090000175EA
:10039200F000C005C004C003120539D003D004D058
:1003A20005900638E493F5DD75DCC0020534750C62
:1003B20000900601E493FAA3E493FEA3E493FF8A78
:1003C2000E8E0F8F10900604E493FF8F11751200AA
:1003D20090000175F000C005C004C003120539D0B9
:1003E20003D004D005900604E493F5DD75DCC00269
:1003F2000534900002E0FFBF05028008BF090280B9
:1004020012020534900003E0F50B75DD0075DCC0C7
:1004120002053475D21243EA8053EABF7E417F005F
:100422008EEE8FEF75D41A43EB0453EBF77E817F88
:10043200008EE48FE5750C0175DD0075DC40020568
:1004420034E50C7009750C0175DCC2020534E50B4C
:10045200600AE50BB5E3028003850BE375DC42021B
:100462000534AED953060F7F00BE0105BF000280DE
:100472000302051F900041E0FF702A750E05750FFB
:10048200018B82C005C0041200D2750E06750F01E1
:100492001200D2750E07750F011200D2AB82D00482
:1004A200D005020534BF0117750E07750F008B8248
:1004B200C005C0041200D2AB82D004D0058073BF45
:1004C2000217750E06750F008B82C005C00412005C
:1004D200D2AB82D004D0058059BF0317750E0575C3
:1004E2000F008B82C005C0041200D2AB82D004D0B0
:1004F20005803FBFFE05750D018037BFFF349000B8
:10050200817401F090008274FFF0900083F09000FB
:1005120084F075D540E5D454FCF5D48015AED9539A
:10052200060F7F00BE020BBF0008E5D4440254FE52
:07053200F5D4C2D9020164F7
:1005C90012010002000000403B4107210001010225
:1005D9000301C90580120600FF0901A101090115DE
:1005E9000026FF007508950181020901150026FF03
:1005F90000750895019102C0DF05802209022200D9
:1006090001010080320904000001030000000921F2
:10061900110100012222000705010340000A050615
:1006290080220A0600020000004000002B06800A12
:1006390004030904100341004E0042005400650000
:10064900630068001A03550053004200200052005D
:1006590065006C00610079004800490044001003FE
:10066900310037004E006F00760032003400390641
:0E06790080043D0680104D06801A6706801032
:06003500E478FFF6D8FD9F
:10053900AD82AE83AFF08D138E148F15850E16859F
:100549000F17851018A811A9128803890418B8FF74
:100559000119EB4C60258516828517838518F012E1
:1005690005A9FCA38582168583178D828E838FF05A
:10057900EC12058EA3AD82AE8380CE8513828514DD
:05058900838515F0223E
:100013007900E94400601B7A0090068778C175A0D7
:1000230000E493F2A308B8000205A0D9F4DAF2754C
:02003300A0FF2C
:10058E0020F71130F6138883A88220F509F6A88388
:0B059E007583002280FEF280F5F02241
:10003B007800E84400600A790175A000E4F309D860
:10004B00FC78C0E84400600C7901900001E4F0A357
:04005B00D8FCD9FAFA
:0D0006007581181205C5E582600302000334
:1005A90020F71430F6148883A88220F507E6A8837B
:1005B90075830022E280F7E49322E022758200220B
:00000001FF
