:03000000020006F5
:03005F0002000399
:03000300020115E2
:10006200AE82AF83EE4F6016C28D758CA2758A4048
:10007200D28C308DFDC28C1EBEFF011F80E622AFE6
:10008200827E00EF30E716900004C007C00612001F
:1000920062900001120062D006D007801490000125
:1000A200C007C006120062900004120062D006D09F
:1000B200078F05ED2DFF0EBE080040C72275E10037
:1000C20075E206900064120062C2AF02380080FE40
:1000D200AF82E50C24F8400BE50D600A7401B50D02
:1000E2000280038F82227401B50D14850CF005F095
:1000F2007401800225E0D5F0FBFEEF4206801185F7
:100102000CF005F07401800225E0D5F0FBF45FFEEF
:100112008E82227F007E0075A15575A1AA75B986CF
:100122008FA15396FE4397015392DF43932053923C
:10013200BF43934053927F439380C295C296C29726
:10014200AD9053B0FE43C98043C91075890175E271
:100152002943D101750B0030D80D7B017C008BEC5B
:100162008CED75DC02C2D830DD148D90BE010FC05B
:1001720007C006C0051200BFD005D006D00730D98F
:10018200D6E5D9540F600302042575DD00ACD953BE
:100192000430BC00030204EABC2003020406BC30A3
:1001A2000280030204EA900001E020E7030203B8A0
:1001B200900002E0FCBC060280030204EA90000404
:1001C200E0FCBC0102801ABC02028065BC0303028F
:1001D20002BABC0603020326BC220302037602040F
:1001E200EA7F00900007E0FCBC120050030204EA20
:1001F200900591E493FAA3E493FBA3E493FC8A0CA5
:100202008B0D8C0E900594E493FC8C0F751000906E
:10021200000175F000C007C006C0051204EFD0054A
:10022200D006D007900594E493F5DD75DCC0020496
:10023200EA7F00900007E0FCBC120040419005DD1F
:10024200E493F9A3E493FAA3E493FB890C8A0D8B5C
:100252000E9005E0E493FB8B0F7510009000017582
:10026200F000C007C006C0051204EFD005D006D0CA
:10027200079005E0E493F5DD75DCC00204EA900521
:10028200DDE493F9A3E493FAA3E493FB890C8A0DCA
:100292008B0E8C0F75100090000175F000C007C026
:1002A20006C005C0041204EFD004D005D006D00762
:1002B2008CDD75DCC00204EA7F00900003E075F07B
:1002C20004A4FCABF0242DF582EB3406F583E49311
:1002D200F8A3E493F9A3E493FA880C890D8A0EEC4F
:1002E200242DFCEB3406FB74032CFCE43BFB8C82D8
:1002F2008B83E493FA8A0F8F1090000175F000C08F
:1003020007C006C005C004C0031204EFD003D00426
:10031200D005D006D0078C828B83E493F5DD75DCA3
:10032200C00204EA7F00900007E0FCBC0A028003DE
:100332000204EA9005EBE493FAA3E493FBA3E493AB
:10034200FC8A0C8B0D8C0E9005EEE493FC8C0F75E1
:10035200100090000175F000C007C006C00512042D
:10036200EFD005D006D0079005EEE493F5DD75DCFD
:10037200C00204EA7F009005B7E493FAA3E493FB7A
:10038200A3E493FC8A0C8B0D8C0E9005BAE493FCCB
:100392008C0F8F1090000175F000C007C006C005D9
:1003A2001204EFD005D006D0079005BAE493F5DD2C
:1003B20075DCC00204EA900002E0FCBC0502800881
:1003C200BC090280120204EA900003E0F50B75DD1D
:1003D2000075DCC00204EA75D21243EA8053EABF18
:1003E2007B417C008BEE8CEF75D41A43EB0453EB0C
:1003F200F77B817C008BE48CE57F0175DD0075DC89
:10040200400204EAEF70087F0175DCC20204EAE5EB
:100412000B600AE50BB5E3028003850BE375DC4252
:100422000204EAACD953040FBC010280030204DACD
:10043200900041E0FC702A750C05750D018D82C09B
:1004420007C0061200D2750C06750D011200D27596
:100452000C07750D011200D2AD82D006D00702043E
:10046200EABC0117750C07750D018D82C007C00625
:100472001200D2AD82D006D007806DBC0217750C77
:1004820006750D018D82C007C0061200D2AD82D062
:1004920006D0078053BC0317750C05750D018D82BC
:1004A200C007C0061200D2AD82D006D0078039BC88
:1004B200FE047E018032BCFF2F9000817401F09017
:1004C200008274FFF0900083F0900084F075D540B4
:1004D200E5D454FCF5D48010ACD953040FBC020807
:0D04E200E5D4440254FEF5D4C2D9020159FC
:10057F0012010002000000403B410721000101026F
:10058F0003017F0580120600FF0901A10109011572
:10059F000026FF007508950181020901150026FF4D
:1005AF0000750895019102C095058022090222006D
:1005BF00010100803209040000010300000009213D
:1005CF00110100012222000705010340000ABB05AB
:1005DF0080220A060002000000400000E105800AA8
:1005EF0004030904100341004E004200540065004B
:1005FF00630068001A0355005300420020005200A8
:10060F0065006C0061007900480049004400100348
:10061F00310037004E006F00760032003400EF05D6
:0E062F008004F30580100306801A1D0680105B
:06003500E478FFF6D8FD9F
:1004EF00AD82AE83AFF08D118E128F13850C1485F4
:1004FF000D15850E16A80FA9108803890418B8FFCB
:10050F000119EB4C60258514828515838516F01231
:10051F00055FFCA38582148583158D828E838FF0F2
:10052F00EC120544A3AD82AE8380CE851182851275
:05053F00838513F0228A
:100013007900E94400601B7A0090063D78C175A021
:1000230000E493F2A308B8000205A0D9F4DAF2754C
:02003300A0FF2C
:1005440020F71130F6138883A88220F509F6A883D2
:0B0554007583002280FEF280F5F0228B
:10003B007800E84400600A790175A000E4F309D860
:10004B00FC78C0E84400600C7901900001E4F0A357
:04005B00D8FCD9FAFA
:0D00060075811612057BE582600302000380
:10055F0020F71430F6148883A88220F507E6A883C5
:10056F0075830022E280F7E49322E0227582002255
:00000001FF
