:03000000020006F5
:06005F00750CFF02000316
:0300030002017087
:10006500AE82AF83EE4F6016C28D758CA2758A4045
:10007500D28C308DFDC28C1EBEFF011F80E622AFE3
:10008500827E00EF30E716900004C007C00612001C
:1000950065900001120065D006D00780149000011C
:1000A500C007C006120065900004120065D006D096
:1000B500078F05ED2DFF0EBE080040C72275E10034
:1000C50075E2069000641200657590FFC2AF0238B4
:1000D5000080FEAF82E50E24F8400BE50F600A7440
:1000E50001B50F0280038F82227401B50F14850EAE
:1000F500F005F07401800225E0D5F0FBFEEF420625
:100105008011850EF005F07401800225E0D5F0FB25
:10011500F45FFE8E8222AF82E50E24F850038F82B3
:1001250022850EF005F07D017E008006ED2DFDEEA9
:1001350033FED5F0F78F037C00EB5205EC5206ED4C
:100145004E6015850EF005F07401800225E0D5F0AE
:10015500FBF4FEEF52068010850EF005F074018069
:100165000225E0D5F0FB4FFE8E82227F008F0D7CAD
:10017500007D0075A15575A1AA75B98643B10175B4
:10018500A1005396FE4397015392DF439320539268
:10019500BF43934053927F4393807590FF750CFF47
:1001A50053B0FE43C98043C91075890175E22943DF
:1001B500D101750B0030D8107A017B008AEC8BEDEC
:1001C50075DC02C2D875E30030DD17850C9074012B
:1001D500B50D0FC007C005C0041200C2D004D0057C
:1001E500D00720DC1EBC6016BDEA13E5B030E00484
:1001F500C2B08002D2B07C007D008DFF80050CBCB2
:1002050000010D30D9AFE5D9540F60030204B17573
:10021500DD00ABD9530330BB00030205B6BB200399
:10022500020492BB300280030205B6D2B0C2B09080
:100235000001E020E703020444900002E0FBBB0656
:100245000280030205B6900004E0FBBB0102801AA0
:10025500BB02028065BB0303020346BB0603020320
:10026500B2BB22030204020205B67F00900007E03C
:10027500FBBB120050030205B690065DE493F9A39B
:10028500E493FAA3E493FB890E8A0F8B1090066022
:10029500E493FB8B1175120090000175F000C00707
:1002A500C005C0041205BBD004D005D00790066078
:1002B500E493F5DD75DCC00205B67F00900007E02C
:1002C500FBBB120040419006A9E493F8A3E493F91F
:1002D500A3E493FA880E890F8A109006ACE493FA8A
:1002E5008A1175120090000175F000C007C005C0A5
:1002F500041205BBD004D005D0079006ACE493F5F5
:10030500DD75DCC00205B69006A9E493F8A3E49375
:10031500F9A3E493FA880E890F8A108B11751200E0
:1003250090000175F000C007C005C004C0031205A8
:10033500BBD003D004D005D0078BDD75DCC002052A
:10034500B67F00900003E075F004A4FBAAF024F941
:10035500F582EA3406F583E493F8A3E493F9A3E47C
:1003650093FE880E890F8E10EB24F9FBEA3406FA0A
:1003750074032BFBE43AFA8B828A83E493FE8E1195
:100385008F1290000175F000C007C005C004C003BE
:10039500C0021205BBD002D003D004D005D0078B14
:1003A500828A83E493F5DD75DCC00205B67F009093
:1003B5000007E0FEBE0A0280030205B69006B7E418
:1003C50093FAA3E493FBA3E493FE8A0E8B0F8E109E
:1003D5009006BAE493FE8E1175120090000175F037
:1003E50000C007C005C0041205BBD004D005D00766
:1003F5009006BAE493F5DD75DCC00205B67F009082
:100405000683E493FAA3E493FBA3E493FE8A0E8B9D
:100415000F8E10900686E493FE8E118F12900001C8
:1004250075F000C007C005C0041205BBD004D00597
:10043500D007900686E493F5DD75DCC00205B6901D
:100445000002E0FEBE05028008BE09028012020518
:10045500B6900003E0F50B75DD0075DCC00205B64E
:1004650075D21243EA8053EABF7B417E008BEE8E44
:10047500EF75D41A43EB0453EBF77B817E008BE4D5
:100485008EE57F0175DD0075DC400205B6EF70086D
:100495007F0175DCC20205B6E50B600AE50BB5E325
:1004A500028003850BE375DC420205B6AED953061F
:1004B5000FBE010280030205A6900041E0FE703CDC
:1004C500750E05750F01850C82C007C005C00412A5
:1004D50000D885820C750E06750F01850C821200F9
:1004E500D885820C750E07750F01850C821200D810
:1004F50085820CD004D005D0070205B6BE011B7558
:100505000E07850C82C007C005C00412011B858239
:100515000CD004D005D0070205B6BE021A750E062A
:10052500850C82C007C005C00412011B85820CD052
:1005350004D005D007807ABE031A750E05850C8296
:10054500C007C005C00412011B85820CD004D0056C
:10055500D007805DBEFD05750D018055BEFE207579
:1005650090FF9000C8C007C005C004120065D00404
:10057500D005D00775A15575A1AA75B1108032BEF9
:10058500FF2F9000817401F090008274FFF09000BD
:1005950083F0900084F075D540E5D454FCF5D48003
:1005A50010AED953060FBE0208E5D4440254FEF539
:0605B500D4C2D90201BA14
:10064B0012010002000000403B41072100010102A2
:10065B0003014B0680120600FF0901A101090115D8
:10066B000026FF007508950181020901150026FF80
:10067B0000750895019102C06106802209022200D3
:10068B000101008032090400000103000000092170
:10069B00110100012222000705010340000A870611
:1006AB0080220A060002000000400000AD06800A0E
:1006BB0004030904100341004E004200540065007E
:1006CB00630068001A0355005300420020005000DD
:1006DB006F0077006500720048004900440010036A
:1006EB00310037004E006F00760032003400BB063D
:0E06FB008004BF068010CF06801AE90680102A
:06003500E478FFF6D8FD9F
:1005BB00AD82AE83AFF08D138E148F15850E16851D
:1005CB000F17851018A811A9128803890418B8FFF2
:1005DB000119EB4C60258516828517838518F0125F
:1005EB00062BFCA38582168583178D828E838FF055
:1005FB00EC120610A3AD82AE8380CE8513828514D8
:05060B00838515F022BB
:100013007900E94400601B7A0090070978C175A054
:1000230000E493F2A308B8000205A0D9F4DAF2754C
:02003300A0FF2C
:1006100020F71130F6138883A88220F509F6A88305
:0B0620007583002280FEF280F5F022BE
:10003B007800E84400600A790175A000E4F309D860
:10004B00FC78C0E84400600C7901900001E4F0A357
:04005B00D8FCD9FAFA
:0D000600758118120647E5826003020003B1
:10062B0020F71430F6148883A88220F507E6A883F8
:10063B0075830022E280F7E49322E0227582002288
:00000001FF
