:03000000020006F5
:03005F0002000399
:030003000200BF39
:10006200AE82AF83EE4F6016C28D758CA2758A4048
:10007200D28C308DFDC28C1EBEFF011F80E622AFE6
:10008200827E00EF30E716900004C007C00612001F
:1000920062900001120062D006D007801490000125
:1000A200C007C006120062900004120062D006D09F
:1000B200078F05ED2DFF0EBE080040C7227F007599
:1000C200A15575A1AA75B9868FA15396FE439701D2
:1000D2005392DF4393205392BF43934053927F4303
:1000E2009380D295D296D29753B0FE43C98043C92A
:1000F2001075890175E22943D101750B0030D80DC5
:100102007D017E008DEC8EED75DC02C2D830D9ED1A
:10011200E5D9540F600302038E75DD00ADD9530596
:10012200307E00BD0006BE00030203F6BD2006BEFF
:100132000003020371BD3005BE000280030203F614
:10014200900001E0FE20E703020323900002E0FE9C
:10015200BE060280030203F6900004E0FEBE010226
:10016200801ABE0202805DBE030302023DBE060388
:100172000202A1BE22030202E90203F67F009000FE
:1001820007E0FEBE120050030203F690049DE493C2
:10019200FCA3E493FDA3E493FE8C0C8D0D8E0E90D4
:1001A20004A0E493FE8E0F75100090000175F0001C
:1001B200C0071203FBD0079004A0E493F5DD75DCC1
:1001C200C00203F67F00900007E0FEBE1200403935
:1001D2009004E9E493FBA3E493FCA3E493FD8B0C6A
:1001E2008C0D8D0E9004ECE493FD8D0F7510009034
:1001F200000175F000C0071203FBD0079004ECE485
:1002020093F5DD75DCC00203F69004E9E493FBA3E9
:10021200E493FCA3E493FD8B0C8C0D8D0E8E0F7575
:10022200100090000175F000C007C0061203FBD059
:1002320006D0078EDD75DCC00203F67F0090000356
:10024200E075F004A4FEADF02439F582ED3405F535
:1002520083E493FAA3E493FBA3E493FC8A0C8B0D4F
:100262008C0EEE2439FEED3405FD74032EFEE43DC2
:10027200FD8E828D83E493FC8C0F8F1090000175AC
:10028200F000C007C006C0051203FBD005D006D09F
:10029200078E828D83E493F5DD75DCC00203F67F61
:1002A20000900007E0FEBE0A0280030203F69004FB
:1002B200F7E493FCA3E493FDA3E493FE8C0C8D0D71
:1002C2008E0E9004FAE493FE8E0F751000900001DA
:1002D20075F000C0071203FBD0079004FAE493F50F
:1002E200DD75DCC00203F67F009004C3E493FCA337
:1002F200E493FDA3E493FE8C0C8D0D8E0E9004C648
:10030200E493FE8E0F8F1090000175F000C007126B
:1003120003FBD0079004C6E493F5DD75DCC002034D
:10032200F6900002E0FEBE05028008BE09028012BD
:100332000203F6900003E0F50B75DD0075DCC002E8
:1003420003F675D21243EA8053EABF7D417E008DE7
:10035200EE8EEF75D41A43EB0453EBF77D817E00EA
:100362008DE48EE57F0175DD0075DC400203F6EF5A
:1003720070077F0175DCC2807BE50B600AE50BB577
:10038200E3028003850BE375DC428068ADD9530537
:100392000F7E00BD0149BE0046900041E0FE70089C
:1003A200D295D296D297804CBE0104C2978045BEA8
:1003B2000204C296803EBE0304C2958037BEFF345B
:1003C2009000817401F090008274FFF0900083F03D
:1003D200900084F075D540E5D454FCF5D48015AD79
:1003E200D953050F7E00BD020BBE0008E5D44402BE
:0903F20054FEF5D4C2D90200FF4B
:10048B0012010002000000403B4107210001010264
:10049B0003018B0480120600FF0901A1010901155C
:1004AB000026FF007508950181020901150026FF42
:1004BB0000750895019102C0A10480220902220057
:1004CB000101008032090400000103000000092132
:1004DB00110100012222000705010340000AC70495
:1004EB0080220A060002000000400000ED04800A92
:1004FB0004030904100341004E0042005400650040
:10050B00630068001A03550053004200200052009C
:10051B0065006C006100790048004900440010033D
:10052B00310037004E006F00760032003400FB04C0
:0E053B008004FF0480100F05801A290580102F
:06003500E478FFF6D8FD9F
:1003FB00AD82AE83AFF08D118E128F13850C1485E9
:10040B000D15850E16A80FA9108803890418B8FFBF
:10041B000119EB4C60258514828515838516F01226
:10042B00046BFCA38582148583158D828E838FF0DC
:10043B00EC120450A3AD82AE8380CE85118285125F
:05044B00838513F0227F
:100013007900E94400601B7A0090054978C175A016
:1000230000E493F2A308B8000205A0D9F4DAF2754C
:02003300A0FF2C
:1004500020F71130F6138883A88220F509F6A883C7
:0B0460007583002280FEF280F5F02280
:10003B007800E84400600A790175A000E4F309D860
:10004B00FC78C0E84400600C7901900001E4F0A357
:04005B00D8FCD9FAFA
:0D000600758116120487E582600302000375
:10046B0020F71430F6148883A88220F507E6A883BA
:10047B0075830022E280F7E49322E022758200224A
:00000001FF
